{
  "contractName": "ArumBarut",
  "abi": [
    {
      "inputs": [],
      "payable": false,
      "stateMutability": "nonpayable",
      "type": "constructor"
    },
    {
      "anonymous": false,
      "inputs": [
        {
          "indexed": false,
          "internalType": "uint256",
          "name": "id",
          "type": "uint256"
        },
        {
          "indexed": false,
          "internalType": "uint256",
          "name": "allocation",
          "type": "uint256"
        }
      ],
      "name": "Reserv",
      "type": "event"
    },
    {
      "anonymous": false,
      "inputs": [
        {
          "indexed": false,
          "internalType": "uint256",
          "name": "id",
          "type": "uint256"
        },
        {
          "indexed": false,
          "internalType": "string",
          "name": "name",
          "type": "string"
        },
        {
          "indexed": false,
          "internalType": "uint256",
          "name": "allocation",
          "type": "uint256"
        }
      ],
      "name": "RoomCreated",
      "type": "event"
    },
    {
      "constant": true,
      "inputs": [],
      "name": "hotelName",
      "outputs": [
        {
          "internalType": "string",
          "name": "",
          "type": "string"
        }
      ],
      "payable": false,
      "stateMutability": "view",
      "type": "function"
    },
    {
      "constant": true,
      "inputs": [],
      "name": "roomCount",
      "outputs": [
        {
          "internalType": "uint256",
          "name": "",
          "type": "uint256"
        }
      ],
      "payable": false,
      "stateMutability": "view",
      "type": "function"
    },
    {
      "constant": true,
      "inputs": [
        {
          "internalType": "uint256",
          "name": "",
          "type": "uint256"
        }
      ],
      "name": "rooms",
      "outputs": [
        {
          "internalType": "uint256",
          "name": "id",
          "type": "uint256"
        },
        {
          "internalType": "string",
          "name": "name",
          "type": "string"
        },
        {
          "internalType": "uint256",
          "name": "allocation",
          "type": "uint256"
        }
      ],
      "payable": false,
      "stateMutability": "view",
      "type": "function"
    },
    {
      "constant": false,
      "inputs": [
        {
          "internalType": "string",
          "name": "_content",
          "type": "string"
        },
        {
          "internalType": "uint256",
          "name": "_allocation",
          "type": "uint256"
        }
      ],
      "name": "createRoom",
      "outputs": [],
      "payable": false,
      "stateMutability": "nonpayable",
      "type": "function"
    },
    {
      "constant": false,
      "inputs": [
        {
          "internalType": "uint256",
          "name": "room_id",
          "type": "uint256"
        }
      ],
      "name": "doReservation",
      "outputs": [],
      "payable": false,
      "stateMutability": "nonpayable",
      "type": "function"
    }
  ],
  "bytecode": "0x6000805560c0604052601560808190527f4172756d20426172757420436f6c6c656374696f6e000000000000000000000060a090815261004291600191906101d6565b5034801561004f57600080fd5b5060408051808201909152601081526f53696e676c6520526f6f6d204172756d60801b602082015261008b90600a6001600160e01b036100cb16565b60408051808201909152601081526f446f75626c6520526f6f6d204172756d60801b60208201526100c690600a6001600160e01b036100cb16565b610271565b600080546001908101808355604080516060810182528281526020808201888152828401889052938652600281529190942084518155915180519293610119939085019291909101906101d6565b50604082015181600201559050507fbfdf5dae1c03a7e5d48fc85a487cab3b7e2e8f12357cd3884e53fd30b1b59f9060005483836040518084815260200180602001838152602001828103825284818151815260200191508051906020019080838360005b8381101561019657818101518382015260200161017e565b50505050905090810190601f1680156101c35780820380516001836020036101000a031916815260200191505b5094505050505060405180910390a15050565b828054600181600116156101000203166002900490600052602060002090601f016020900481019282601f1061021757805160ff1916838001178555610244565b82800160010185558215610244579182015b82811115610244578251825591602001919060010190610229565b50610250929150610254565b5090565b61026e91905b80821115610250576000815560010161025a565b90565b6106fe806102806000396000f3fe608060405234801561001057600080fd5b50600436106100575760003560e01c80631bae0ac81461005c5780632db4f279146100ff578063bdff336c146101a9578063df93a4e314610226578063fa5fb54514610240575b600080fd5b6100796004803603602081101561007257600080fd5b503561025d565b6040518084815260200180602001838152602001828103825284818151815260200191508051906020019080838360005b838110156100c25781810151838201526020016100aa565b50505050905090810190601f1680156100ef5780820380516001836020036101000a031916815260200191505b5094505050505060405180910390f35b6101a76004803603604081101561011557600080fd5b81019060208101813564010000000081111561013057600080fd5b82018360208201111561014257600080fd5b8035906020019184600183028401116401000000008311171561016457600080fd5b91908080601f0160208091040260200160405190810160405280939291908181526020018383808284376000920191909152509295505091359250610308915050565b005b6101b1610413565b6040805160208082528351818301528351919283929083019185019080838360005b838110156101eb5781810151838201526020016101d3565b50505050905090810190601f1680156102185780820380516001836020036101000a031916815260200191505b509250505060405180910390f35b61022e6104a0565b60408051918252519081900360200190f35b6101a76004803603602081101561025657600080fd5b50356104a6565b60026020818152600092835260409283902080546001808301805487519281161561010002600019011695909504601f81018590048502820185019096528581529094919390929091908301828280156102f85780601f106102cd576101008083540402835291602001916102f8565b820191906000526020600020905b8154815290600101906020018083116102db57829003601f168201915b5050505050908060020154905083565b6000805460019081018083556040805160608101825282815260208082018881528284018890529386526002815291909420845181559151805192936103569390850192919091019061060d565b50604082015181600201559050507fbfdf5dae1c03a7e5d48fc85a487cab3b7e2e8f12357cd3884e53fd30b1b59f9060005483836040518084815260200180602001838152602001828103825284818151815260200191508051906020019080838360005b838110156103d35781810151838201526020016103bb565b50505050905090810190601f1680156104005780820380516001836020036101000a031916815260200191505b5094505050505060405180910390a15050565b60018054604080516020600284861615610100026000190190941693909304601f810184900484028201840190925281815292918301828280156104985780601f1061046d57610100808354040283529160200191610498565b820191906000526020600020905b81548152906001019060200180831161047b57829003601f168201915b505050505081565b60005481565b6104ae61068b565b6002600083815260200190815260200160002060405180606001604052908160008201548152602001600182018054600181600116156101000203166002900480601f01602080910402602001604051908101604052809291908181526020018280546001816001161561010002031660029004801561056f5780601f106105445761010080835404028352916020019161056f565b820191906000526020600020905b81548152906001019060200180831161055257829003601f168201915b505050918352505060029182015460209182015260408084018051600019019052600086815292825290912082518155828201518051939450849391926105be9260018501929091019061060d565b50604091820151600290910155818101518151848152602081019190915281517fd54657493cbb878bf963afb85da3fc8ea36fbdf939eb9ad17d4b69c56fe32c08929181900390910190a15050565b828054600181600116156101000203166002900490600052602060002090601f016020900481019282601f1061064e57805160ff191683800117855561067b565b8280016001018555821561067b579182015b8281111561067b578251825591602001919060010190610660565b506106879291506106ac565b5090565b60405180606001604052806000815260200160608152602001600081525090565b6106c691905b8082111561068757600081556001016106b2565b9056fea265627a7a723158208ff70b1cb9926bc17222607e4e2984159d844621621d0197691f514b916346ae64736f6c63430005100032",
  "source": "pragma solidity ^0.5.0;\n\ncontract ArumBarut {\n  uint public roomCount = 0;\n  string public hotelName = \"Arum Barut Collection\";\n\n\n  struct ArumBarut{\n    uint id;\n    string name;\n    uint allocation;\n  }\n\n\n  mapping(uint => ArumBarut) public rooms;\n\n\n \n\n\n  event RoomCreated(\n    uint id,\n    string name,\n    uint allocation\n  );\n\n  event Reserv(\n    uint id,\n    uint allocation\n  );\n\n  constructor() public {\n    createRoom(\"Single Room Arum\",10);\n    createRoom(\"Double Room Arum\",10);\n\n  }\n\n\n\n  function createRoom(string memory _content,uint _allocation) public {\n    roomCount++;\n    rooms[roomCount] = ArumBarut(roomCount, _content, _allocation);\n    emit RoomCreated(roomCount, _content, _allocation);\n  }\n\n  function doReservation(uint room_id) public {\n    ArumBarut memory _room = rooms[room_id];\n    _room.allocation = _room.allocation - 1;\n    rooms[room_id] = _room;\n    emit Reserv(room_id, _room.allocation);\n   \n  }\n\n\n\n}\n",
  "sourcePath": "/home/ilhan/Desktop/overbooking-breaker/contracts/ArumBarut.sol",
  "compiler": {
    "name": "solc",
    "version": "0.5.16+commit.9c3226ce.Emscripten.clang"
  },
  "schemaVersion": "3.2.3",
  "updatedAt": "2021-06-26T19:43:10.788Z",
  "networkType": "ethereum",
  "devdoc": {
    "methods": {}
  },
  "userdoc": {
    "methods": {}
  }
}