{
  "contractName": "Contract",
  "abi": [
    {
      "inputs": [],
      "payable": false,
      "stateMutability": "nonpayable",
      "type": "constructor"
    },
    {
      "anonymous": false,
      "inputs": [
        {
          "indexed": false,
          "internalType": "uint256",
          "name": "id",
          "type": "uint256"
        },
        {
          "indexed": false,
          "internalType": "uint256",
          "name": "allocation",
          "type": "uint256"
        }
      ],
      "name": "Reserv",
      "type": "event"
    },
    {
      "anonymous": false,
      "inputs": [
        {
          "indexed": false,
          "internalType": "uint256",
          "name": "id",
          "type": "uint256"
        },
        {
          "indexed": false,
          "internalType": "string",
          "name": "name",
          "type": "string"
        },
        {
          "indexed": false,
          "internalType": "uint256",
          "name": "allocation",
          "type": "uint256"
        }
      ],
      "name": "RoomCreated",
      "type": "event"
    },
    {
      "constant": true,
      "inputs": [],
      "name": "roomCount",
      "outputs": [
        {
          "internalType": "uint256",
          "name": "",
          "type": "uint256"
        }
      ],
      "payable": false,
      "stateMutability": "view",
      "type": "function"
    },
    {
      "constant": true,
      "inputs": [
        {
          "internalType": "uint256",
          "name": "",
          "type": "uint256"
        }
      ],
      "name": "rooms",
      "outputs": [
        {
          "internalType": "uint256",
          "name": "id",
          "type": "uint256"
        },
        {
          "internalType": "string",
          "name": "name",
          "type": "string"
        },
        {
          "internalType": "uint256",
          "name": "allocation",
          "type": "uint256"
        }
      ],
      "payable": false,
      "stateMutability": "view",
      "type": "function"
    },
    {
      "constant": false,
      "inputs": [
        {
          "internalType": "string",
          "name": "_content",
          "type": "string"
        },
        {
          "internalType": "uint256",
          "name": "_allocation",
          "type": "uint256"
        }
      ],
      "name": "createRoom",
      "outputs": [],
      "payable": false,
      "stateMutability": "nonpayable",
      "type": "function"
    },
    {
      "constant": false,
      "inputs": [
        {
          "internalType": "uint256",
          "name": "room_id",
          "type": "uint256"
        }
      ],
      "name": "doReservation",
      "outputs": [],
      "payable": false,
      "stateMutability": "nonpayable",
      "type": "function"
    }
  ],
  "bytecode": "0x60806040526000805534801561001457600080fd5b5060408051808201909152600b81526a53696e676c6520526f6f6d60a81b602082015261004b90600a6001600160e01b0361008616565b60408051808201909152600b81526a446f75626c6520526f6f6d60a81b602082015261008190600a6001600160e01b0361008616565b61022b565b60008054600190810180835560408051606081018252828152602080820188815282840188905293865284815291909420845181559151805192936100d393908501929190910190610190565b50604082015181600201559050507fbfdf5dae1c03a7e5d48fc85a487cab3b7e2e8f12357cd3884e53fd30b1b59f9060005483836040518084815260200180602001838152602001828103825284818151815260200191508051906020019080838360005b83811015610150578181015183820152602001610138565b50505050905090810190601f16801561017d5780820380516001836020036101000a031916815260200191505b5094505050505060405180910390a15050565b828054600181600116156101000203166002900490600052602060002090601f016020900481019282601f106101d157805160ff19168380011785556101fe565b828001600101855582156101fe579182015b828111156101fe5782518255916020019190600101906101e3565b5061020a92915061020e565b5090565b61022891905b8082111561020a5760008155600101610214565b90565b6105d18061023a6000396000f3fe608060405234801561001057600080fd5b506004361061004c5760003560e01c80631bae0ac8146100515780632db4f279146100f4578063df93a4e31461019e578063fa5fb545146101b8575b600080fd5b61006e6004803603602081101561006757600080fd5b50356101d5565b6040518084815260200180602001838152602001828103825284818151815260200191508051906020019080838360005b838110156100b757818101518382015260200161009f565b50505050905090810190601f1680156100e45780820380516001836020036101000a031916815260200191505b5094505050505060405180910390f35b61019c6004803603604081101561010a57600080fd5b81019060208101813564010000000081111561012557600080fd5b82018360208201111561013757600080fd5b8035906020019184600183028401116401000000008311171561015957600080fd5b91908080601f0160208091040260200160405190810160405280939291908181526020018383808284376000920191909152509295505091359250610281915050565b005b6101a661038b565b60408051918252519081900360200190f35b61019c600480360360208110156101ce57600080fd5b5035610391565b600160208181526000928352604092839020805481840180548651600296821615610100026000190190911695909504601f810185900485028601850190965285855290949193929091908301828280156102715780601f1061024657610100808354040283529160200191610271565b820191906000526020600020905b81548152906001019060200180831161025457829003601f168201915b5050505050908060020154905083565b60008054600190810180835560408051606081018252828152602080820188815282840188905293865284815291909420845181559151805192936102ce939085019291909101906104e0565b50604082015181600201559050507fbfdf5dae1c03a7e5d48fc85a487cab3b7e2e8f12357cd3884e53fd30b1b59f9060005483836040518084815260200180602001838152602001828103825284818151815260200191508051906020019080838360005b8381101561034b578181015183820152602001610333565b50505050905090810190601f1680156103785780820380516001836020036101000a031916815260200191505b5094505050505060405180910390a15050565b60005481565b61039961055e565b60008281526001602081815260409283902083516060810185528154815281840180548651600296821615610100026000190190911695909504601f810185900485028601850190965285855290949193858401939092908301828280156104425780601f1061041757610100808354040283529160200191610442565b820191906000526020600020905b81548152906001019060200180831161042557829003601f168201915b50505091835250506002919091015460209182015260408083018051600019019052600085815260018084529190208351815583830151805194955085949193610491938501929101906104e0565b50604091820151600290910155818101518151848152602081019190915281517fd54657493cbb878bf963afb85da3fc8ea36fbdf939eb9ad17d4b69c56fe32c08929181900390910190a15050565b828054600181600116156101000203166002900490600052602060002090601f016020900481019282601f1061052157805160ff191683800117855561054e565b8280016001018555821561054e579182015b8281111561054e578251825591602001919060010190610533565b5061055a92915061057f565b5090565b60405180606001604052806000815260200160608152602001600081525090565b61059991905b8082111561055a5760008155600101610585565b9056fea265627a7a723158209d62480c81edc90fa73fa5c5f5a68e6112a69cf5296ac9ca4cbf08c1c01e429f64736f6c63430005100032",
  "source": "pragma solidity ^0.5.0;\n\ncontract Contract {\n  uint public roomCount = 0;\n\n\n  struct Contract{\n    uint id;\n    string name;\n    uint allocation;\n  }\n\n\n  mapping(uint => Contract) public rooms;\n\n\n \n\n\n  event RoomCreated(\n    uint id,\n    string name,\n    uint allocation\n  );\n\n  event Reserv(\n    uint id,\n    uint allocation\n  );\n\n  constructor() public {\n    createRoom(\"Single Room\",10);\n    createRoom(\"Double Room\",10);\n\n  }\n\n\n\n  function createRoom(string memory _content,uint _allocation) public {\n    roomCount++;\n    rooms[roomCount] = Contract(roomCount, _content, _allocation);\n    emit RoomCreated(roomCount, _content, _allocation);\n  }\n\n  function doReservation(uint room_id) public {\n    Contract memory _room = rooms[room_id];\n    _room.allocation = _room.allocation - 1;\n    rooms[room_id] = _room;\n    emit Reserv(room_id, _room.allocation);\n   \n  }\n\n\n\n}\n",
  "sourcePath": "/home/ilhan/Desktop/overbooking-breaker/contracts/Contract.sol",
  "compiler": {
    "name": "solc",
    "version": "0.5.16+commit.9c3226ce.Emscripten.clang"
  },
  "schemaVersion": "3.2.3",
  "updatedAt": "2021-06-16T20:33:37.514Z",
  "networkType": "ethereum",
  "devdoc": {
    "methods": {}
  },
  "userdoc": {
    "methods": {}
  }
}