{
  "contractName": "TodoList",
  "abi": [
    {
      "inputs": [],
      "payable": false,
      "stateMutability": "nonpayable",
      "type": "constructor"
    },
    {
      "anonymous": false,
      "inputs": [
        {
          "indexed": false,
          "internalType": "uint256",
          "name": "id",
          "type": "uint256"
        },
        {
          "indexed": false,
          "internalType": "uint256",
          "name": "allocation",
          "type": "uint256"
        }
      ],
      "name": "Reserv",
      "type": "event"
    },
    {
      "anonymous": false,
      "inputs": [
        {
          "indexed": false,
          "internalType": "uint256",
          "name": "id",
          "type": "uint256"
        },
        {
          "indexed": false,
          "internalType": "string",
          "name": "name",
          "type": "string"
        },
        {
          "indexed": false,
          "internalType": "uint256",
          "name": "allocation",
          "type": "uint256"
        }
      ],
      "name": "RoomCreated",
      "type": "event"
    },
    {
      "anonymous": false,
      "inputs": [
        {
          "indexed": false,
          "internalType": "uint256",
          "name": "id",
          "type": "uint256"
        },
        {
          "indexed": false,
          "internalType": "bool",
          "name": "completed",
          "type": "bool"
        }
      ],
      "name": "TaskCompleted",
      "type": "event"
    },
    {
      "anonymous": false,
      "inputs": [
        {
          "indexed": false,
          "internalType": "uint256",
          "name": "id",
          "type": "uint256"
        },
        {
          "indexed": false,
          "internalType": "string",
          "name": "content",
          "type": "string"
        },
        {
          "indexed": false,
          "internalType": "bool",
          "name": "completed",
          "type": "bool"
        }
      ],
      "name": "TaskCreated",
      "type": "event"
    },
    {
      "constant": true,
      "inputs": [],
      "name": "roomCount",
      "outputs": [
        {
          "internalType": "uint256",
          "name": "",
          "type": "uint256"
        }
      ],
      "payable": false,
      "stateMutability": "view",
      "type": "function"
    },
    {
      "constant": true,
      "inputs": [
        {
          "internalType": "uint256",
          "name": "",
          "type": "uint256"
        }
      ],
      "name": "rooms",
      "outputs": [
        {
          "internalType": "uint256",
          "name": "id",
          "type": "uint256"
        },
        {
          "internalType": "string",
          "name": "name",
          "type": "string"
        },
        {
          "internalType": "uint256",
          "name": "allocation",
          "type": "uint256"
        }
      ],
      "payable": false,
      "stateMutability": "view",
      "type": "function"
    },
    {
      "constant": true,
      "inputs": [],
      "name": "taskCount",
      "outputs": [
        {
          "internalType": "uint256",
          "name": "",
          "type": "uint256"
        }
      ],
      "payable": false,
      "stateMutability": "view",
      "type": "function"
    },
    {
      "constant": true,
      "inputs": [
        {
          "internalType": "uint256",
          "name": "",
          "type": "uint256"
        }
      ],
      "name": "tasks",
      "outputs": [
        {
          "internalType": "uint256",
          "name": "id",
          "type": "uint256"
        },
        {
          "internalType": "string",
          "name": "content",
          "type": "string"
        },
        {
          "internalType": "bool",
          "name": "completed",
          "type": "bool"
        }
      ],
      "payable": false,
      "stateMutability": "view",
      "type": "function"
    },
    {
      "constant": false,
      "inputs": [
        {
          "internalType": "string",
          "name": "_content",
          "type": "string"
        }
      ],
      "name": "createTask",
      "outputs": [],
      "payable": false,
      "stateMutability": "nonpayable",
      "type": "function"
    },
    {
      "constant": false,
      "inputs": [
        {
          "internalType": "string",
          "name": "_content",
          "type": "string"
        },
        {
          "internalType": "uint256",
          "name": "_allocation",
          "type": "uint256"
        }
      ],
      "name": "createRoom",
      "outputs": [],
      "payable": false,
      "stateMutability": "nonpayable",
      "type": "function"
    },
    {
      "constant": false,
      "inputs": [
        {
          "internalType": "uint256",
          "name": "room_id",
          "type": "uint256"
        }
      ],
      "name": "doReservation",
      "outputs": [],
      "payable": false,
      "stateMutability": "nonpayable",
      "type": "function"
    },
    {
      "constant": false,
      "inputs": [
        {
          "internalType": "uint256",
          "name": "_id",
          "type": "uint256"
        }
      ],
      "name": "toggleCompleted",
      "outputs": [],
      "payable": false,
      "stateMutability": "nonpayable",
      "type": "function"
    }
  ],
  "bytecode": "0x60806040526000805560006001553480156200001a57600080fd5b5060408051808201909152601c81527f436865636b206f75742064617070756e69766572736974792e636f6d00000000602082015262000063906001600160e01b03620000d916565b60408051808201909152600b81526a53696e676c6520526f6f6d60a81b60208201526200009b90600a6001600160e01b036200020316565b60408051808201909152600b81526a446f75626c6520526f6f6d60a81b6020820152620000d390600a6001600160e01b036200020316565b620003b6565b600080546001908101808355604080516060810182528281526020808201878152828401879052938652600281529190942084518155915180519293620001299390850192919091019062000311565b5060408201518160020160006101000a81548160ff0219169083151502179055509050507f05d0fb833127fc08168556d0e7ca9554fc3f6bc843b3b7d2bf1c35aea6bab660600054826000604051808481526020018060200183151515158152602001828103825284818151815260200191508051906020019080838360005b83811015620001c3578181015183820152602001620001a9565b50505050905090810190601f168015620001f15780820380516001836020036101000a031916815260200191505b5094505050505060405180910390a150565b60018054810180825560408051606081018252828152602080820187815282840187905260009485526003825292909320815181559151805191949293620002519385019291019062000311565b50604082015181600201559050507fbfdf5dae1c03a7e5d48fc85a487cab3b7e2e8f12357cd3884e53fd30b1b59f9060015483836040518084815260200180602001838152602001828103825284818151815260200191508051906020019080838360005b83811015620002d0578181015183820152602001620002b6565b50505050905090810190601f168015620002fe5780820380516001836020036101000a031916815260200191505b5094505050505060405180910390a15050565b828054600181600116156101000203166002900490600052602060002090601f016020900481019282601f106200035457805160ff191683800117855562000384565b8280016001018555821562000384579182015b828111156200038457825182559160200191906001019062000367565b506200039292915062000396565b5090565b620003b391905b808211156200039257600081556001016200039d565b90565b610aca80620003c66000396000f3fe608060405234801561001057600080fd5b50600436106100885760003560e01c80638d9776721161005b5780638d9776721461029d578063b6cb58a514610303578063df93a4e31461031d578063fa5fb5451461032557610088565b8063111002aa1461008d5780631bae0ac8146101355780632db4f279146101d8578063455f502414610280575b600080fd5b610133600480360360208110156100a357600080fd5b8101906020810181356401000000008111156100be57600080fd5b8201836020820111156100d057600080fd5b803590602001918460018302840111640100000000831117156100f257600080fd5b91908080601f016020809104026020016040519081016040528093929190818152602001838380828437600092019190915250929550610342945050505050565b005b6101526004803603602081101561014b57600080fd5b5035610467565b6040518084815260200180602001838152602001828103825284818151815260200191508051906020019080838360005b8381101561019b578181015183820152602001610183565b50505050905090810190601f1680156101c85780820380516001836020036101000a031916815260200191505b5094505050505060405180910390f35b610133600480360360408110156101ee57600080fd5b81019060208101813564010000000081111561020957600080fd5b82018360208201111561021b57600080fd5b8035906020019184600183028401116401000000008311171561023d57600080fd5b91908080601f0160208091040260200160405190810160405280939291908181526020018383808284376000920191909152509295505091359250610514915050565b6101336004803603602081101561029657600080fd5b503561061d565b6102ba600480360360208110156102b357600080fd5b5035610795565b604080518481528215159181019190915260606020808301828152855192840192909252845160808401918601908083836000831561019b578181015183820152602001610183565b61030b610843565b60408051918252519081900360200190f35b61030b610849565b6101336004803603602081101561033b57600080fd5b503561084f565b600080546001908101808355604080516060810182528281526020808201878152828401879052938652600281529190942084518155915180519293610390939085019291909101906109b6565b5060408201518160020160006101000a81548160ff0219169083151502179055509050507f05d0fb833127fc08168556d0e7ca9554fc3f6bc843b3b7d2bf1c35aea6bab660600054826000604051808481526020018060200183151515158152602001828103825284818151815260200191508051906020019080838360005b83811015610428578181015183820152602001610410565b50505050905090810190601f1680156104555780820380516001836020036101000a031916815260200191505b5094505050505060405180910390a150565b6003602090815260009182526040918290208054600180830180548651600293821615610100026000190190911692909204601f8101869004860283018601909652858252919492939092908301828280156105045780601f106104d957610100808354040283529160200191610504565b820191906000526020600020905b8154815290600101906020018083116104e757829003601f168201915b5050505050908060020154905083565b60018054810180825560408051606081018252828152602080820187815282840187905260009485526003825292909320815181559151805191949293610560938501929101906109b6565b50604082015181600201559050507fbfdf5dae1c03a7e5d48fc85a487cab3b7e2e8f12357cd3884e53fd30b1b59f9060015483836040518084815260200180602001838152602001828103825284818151815260200191508051906020019080838360005b838110156105dd5781810151838201526020016105c5565b50505050905090810190601f16801561060a5780820380516001836020036101000a031916815260200191505b5094505050505060405180910390a15050565b610625610a34565b6002600083815260200190815260200160002060405180606001604052908160008201548152602001600182018054600181600116156101000203166002900480601f0160208091040260200160405190810160405280929190818152602001828054600181600116156101000203166002900480156106e65780601f106106bb576101008083540402835291602001916106e6565b820191906000526020600020905b8154815290600101906020018083116106c957829003601f168201915b505050918352505060029182015460ff1615156020918201526040808401805115905260008681529282529091208251815582820151805193945084939192610737926001850192909101906109b6565b50604091820151600291909101805460ff1916911515919091179055818101518151848152901515602082015281517fe21fa966ca5cd02748c0752352d18c48165e61cb55b4c29cccf924b5a95fcff1929181900390910190a15050565b60026020818152600092835260409283902080546001808301805487519281161561010002600019011695909504601f81018590048502820185019096528581529094919390929091908301828280156108305780601f1061080557610100808354040283529160200191610830565b820191906000526020600020905b81548152906001019060200180831161081357829003601f168201915b5050506002909301549192505060ff1683565b60005481565b60015481565b610857610a57565b6003600083815260200190815260200160002060405180606001604052908160008201548152602001600182018054600181600116156101000203166002900480601f0160208091040260200160405190810160405280929190818152602001828054600181600116156101000203166002900480156109185780601f106108ed57610100808354040283529160200191610918565b820191906000526020600020905b8154815290600101906020018083116108fb57829003601f168201915b50505091835250506002919091015460209182015260408083018051600019019052600085815260038352208251815582820151805193945084939192610967926001850192909101906109b6565b50604091820151600290910155818101518151848152602081019190915281517fd54657493cbb878bf963afb85da3fc8ea36fbdf939eb9ad17d4b69c56fe32c08929181900390910190a15050565b828054600181600116156101000203166002900490600052602060002090601f016020900481019282601f106109f757805160ff1916838001178555610a24565b82800160010185558215610a24579182015b82811115610a24578251825591602001919060010190610a09565b50610a30929150610a78565b5090565b604051806060016040528060008152602001606081526020016000151581525090565b60405180606001604052806000815260200160608152602001600081525090565b610a9291905b80821115610a305760008155600101610a7e565b9056fea265627a7a72315820286fa5986daefb4a37be5233179e64f4ae1457865fda4d9f36243190553be40364736f6c63430005100032",
  "source": "pragma solidity ^0.5.0;\n\ncontract TodoList {\n  uint public taskCount = 0;\n  uint public roomCount = 0;\n\n\n  struct Task {\n    uint id;\n    string content;\n    bool completed;\n  }\n\n  struct Contract{\n    uint id;\n    string name;\n    uint allocation;\n  }\n\n  mapping(uint => Task) public tasks;\n\n  mapping(uint => Contract) public rooms;\n\n\n  event TaskCreated(\n    uint id,\n    string content,\n    bool completed\n  );\n\n\n  event RoomCreated(\n    uint id,\n    string name,\n    uint allocation\n  );\n\n  event TaskCompleted(\n    uint id,\n    bool completed\n  );\n\n  event Reserv(\n    uint id,\n    uint allocation\n  );\n\n  constructor() public {\n    createTask(\"Check out dappuniversity.com\");\n    createRoom(\"Single Room\",10);\n    createRoom(\"Double Room\",10);\n\n  }\n\n  function createTask(string memory _content) public {\n    taskCount ++;\n    tasks[taskCount] = Task(taskCount, _content, false);\n    emit TaskCreated(taskCount, _content, false);\n  }\n\n\n  function createRoom(string memory _content,uint _allocation) public {\n    roomCount++;\n    rooms[roomCount] = Contract(roomCount, _content, _allocation);\n    emit RoomCreated(roomCount, _content, _allocation);\n  }\n\n  function doReservation(uint room_id) public {\n    Contract memory _room = rooms[room_id];\n    _room.allocation = _room.allocation - 1;\n    rooms[room_id] = _room;\n    emit Reserv(room_id, _room.allocation);\n   \n  }\n\n  function toggleCompleted(uint _id) public {\n    Task memory _task = tasks[_id];\n    _task.completed = !_task.completed;\n    tasks[_id] = _task;\n    emit TaskCompleted(_id, _task.completed);\n  }\n\n}\n",
  "sourcePath": "/home/ilhan/Desktop/eth-todo-list/contracts/TodoList.sol",
  "compiler": {
    "name": "solc",
    "version": "0.5.16+commit.9c3226ce.Emscripten.clang"
  },
  "schemaVersion": "3.2.3",
  "updatedAt": "2021-06-16T20:06:47.680Z",
  "networkType": "ethereum",
  "devdoc": {
    "methods": {}
  },
  "userdoc": {
    "methods": {}
  }
}