{
  "contractName": "User",
  "abi": [
    {
      "inputs": [],
      "payable": false,
      "stateMutability": "nonpayable",
      "type": "constructor"
    },
    {
      "anonymous": false,
      "inputs": [
        {
          "indexed": false,
          "internalType": "uint256",
          "name": "id",
          "type": "uint256"
        },
        {
          "indexed": false,
          "internalType": "string",
          "name": "name",
          "type": "string"
        },
        {
          "indexed": false,
          "internalType": "string",
          "name": "password",
          "type": "string"
        }
      ],
      "name": "UserCreated",
      "type": "event"
    },
    {
      "constant": true,
      "inputs": [],
      "name": "userCount",
      "outputs": [
        {
          "internalType": "uint256",
          "name": "",
          "type": "uint256"
        }
      ],
      "payable": false,
      "stateMutability": "view",
      "type": "function"
    },
    {
      "constant": true,
      "inputs": [
        {
          "internalType": "uint256",
          "name": "",
          "type": "uint256"
        }
      ],
      "name": "users",
      "outputs": [
        {
          "internalType": "uint256",
          "name": "id",
          "type": "uint256"
        },
        {
          "internalType": "string",
          "name": "name",
          "type": "string"
        },
        {
          "internalType": "string",
          "name": "password",
          "type": "string"
        }
      ],
      "payable": false,
      "stateMutability": "view",
      "type": "function"
    },
    {
      "constant": false,
      "inputs": [
        {
          "internalType": "string",
          "name": "_name",
          "type": "string"
        },
        {
          "internalType": "string",
          "name": "_password",
          "type": "string"
        }
      ],
      "name": "createUser",
      "outputs": [],
      "payable": false,
      "stateMutability": "nonpayable",
      "type": "function"
    },
    {
      "constant": false,
      "inputs": [
        {
          "internalType": "string",
          "name": "_name",
          "type": "string"
        },
        {
          "internalType": "string",
          "name": "_password",
          "type": "string"
        }
      ],
      "name": "loginUser",
      "outputs": [
        {
          "internalType": "bool",
          "name": "",
          "type": "bool"
        }
      ],
      "payable": false,
      "stateMutability": "nonpayable",
      "type": "function"
    },
    {
      "constant": true,
      "inputs": [
        {
          "internalType": "string",
          "name": "a",
          "type": "string"
        },
        {
          "internalType": "string",
          "name": "b",
          "type": "string"
        }
      ],
      "name": "compareStrings",
      "outputs": [
        {
          "internalType": "bool",
          "name": "",
          "type": "bool"
        }
      ],
      "payable": false,
      "stateMutability": "view",
      "type": "function"
    }
  ],
  "bytecode": "0x6080604052600080553480156200001557600080fd5b50620000626040518060400160405280600581526020016430b236b4b760d91b8152506040518060400160405280600581526020016430b236b4b760d91b815250620000b060201b60201c565b620000aa60405180604001604052806003815260200162185cd960ea1b81525060405180604001604052806003815260200162185cd960ea1b815250620000b060201b60201c565b620002da565b6000805460019081018083556040805160608101825282815260208082018881528284018890529386528481529190942084518155915180519293620000ff9390850192919091019062000235565b50604082015180516200011d91600284019160209091019062000235565b509050507fa1a1af9c5c29e69f23e5ac29120f6a7ea106635803581b461fab3a26faeae6776000548383604051808481526020018060200180602001838103835285818151815260200191508051906020019080838360005b838110156200019057818101518382015260200162000176565b50505050905090810190601f168015620001be5780820380516001836020036101000a031916815260200191505b50838103825284518152845160209182019186019080838360005b83811015620001f3578181015183820152602001620001d9565b50505050905090810190601f168015620002215780820380516001836020036101000a031916815260200191505b509550505050505060405180910390a15050565b828054600181600116156101000203166002900490600052602060002090601f016020900481019282601f106200027857805160ff1916838001178555620002a8565b82800160010185558215620002a8579182015b82811115620002a85782518255916020019190600101906200028b565b50620002b6929150620002ba565b5090565b620002d791905b80821115620002b65760008155600101620002c1565b90565b610b0380620002ea6000396000f3fe608060405234801561001057600080fd5b50600436106100575760003560e01c806307973ccf1461005c57806322ce12e514610076578063365b98b2146101b357806387b162b5146102b5578063bed34bba146103e0575b600080fd5b610064610509565b60408051918252519081900360200190f35b61019f6004803603604081101561008c57600080fd5b810190602081018135600160201b8111156100a657600080fd5b8201836020820111156100b857600080fd5b803590602001918460018302840111600160201b831117156100d957600080fd5b91908080601f0160208091040260200160405190810160405280939291908181526020018383808284376000920191909152509295949360208101935035915050600160201b81111561012b57600080fd5b82018360208201111561013d57600080fd5b803590602001918460018302840111600160201b8311171561015e57600080fd5b91908080601f01602080910402602001604051908101604052809392919081815260200183838082843760009201919091525092955061050f945050505050565b604080519115158252519081900360200190f35b6101d0600480360360208110156101c957600080fd5b5035610699565b604051808481526020018060200180602001838103835285818151815260200191508051906020019080838360005b838110156102175781810151838201526020016101ff565b50505050905090810190601f1680156102445780820380516001836020036101000a031916815260200191505b50838103825284518152845160209182019186019080838360005b8381101561027757818101518382015260200161025f565b50505050905090810190601f1680156102a45780820380516001836020036101000a031916815260200191505b509550505050505060405180910390f35b6103de600480360360408110156102cb57600080fd5b810190602081018135600160201b8111156102e557600080fd5b8201836020820111156102f757600080fd5b803590602001918460018302840111600160201b8311171561031857600080fd5b91908080601f0160208091040260200160405190810160405280939291908181526020018383808284376000920191909152509295949360208101935035915050600160201b81111561036a57600080fd5b82018360208201111561037c57600080fd5b803590602001918460018302840111600160201b8311171561039d57600080fd5b91908080601f0160208091040260200160405190810160405280939291908181526020018383808284376000920191909152509295506107d1945050505050565b005b61019f600480360360408110156103f657600080fd5b810190602081018135600160201b81111561041057600080fd5b82018360208201111561042257600080fd5b803590602001918460018302840111600160201b8311171561044357600080fd5b91908080601f0160208091040260200160405190810160405280939291908181526020018383808284376000920191909152509295949360208101935035915050600160201b81111561049557600080fd5b8201836020820111156104a757600080fd5b803590602001918460018302840111600160201b831117156104c857600080fd5b91908080601f01602080910402602001604051908101604052809392919081815260200183838082843760009201919091525092955061094c945050505050565b60005481565b600080805b60005481101561069157600081815260016020818152604092839020820180548451600294821615610100026000190190911693909304601f81018390048302840183019094528383526105c09390918301828280156105b55780601f1061058a576101008083540402835291602001916105b5565b820191906000526020600020905b81548152906001019060200180831161059857829003601f168201915b50505050508661094c565b801561067f575061067f600160008381526020019081526020016000206002018054600181600116156101000203166002900480601f0160208091040260200160405190810160405280929190818152602001828054600181600116156101000203166002900480156106745780601f1061064957610100808354040283529160200191610674565b820191906000526020600020905b81548152906001019060200180831161065757829003601f168201915b50505050508561094c565b1561068957600191505b600101610514565b509392505050565b600160208181526000928352604092839020805481840180548651600296821615610100026000190190911695909504601f810185900485028601850190965285855290949193929091908301828280156107355780601f1061070a57610100808354040283529160200191610735565b820191906000526020600020905b81548152906001019060200180831161071857829003601f168201915b50505060028085018054604080516020601f60001961010060018716150201909416959095049283018590048502810185019091528181529596959450909250908301828280156107c75780601f1061079c576101008083540402835291602001916107c7565b820191906000526020600020905b8154815290600101906020018083116107aa57829003601f168201915b5050505050905083565b600080546001908101808355604080516060810182528281526020808201888152828401889052938652848152919094208451815591518051929361081e93908501929190910190610a33565b506040820151805161083a916002840191602090910190610a33565b509050507fa1a1af9c5c29e69f23e5ac29120f6a7ea106635803581b461fab3a26faeae6776000548383604051808481526020018060200180602001838103835285818151815260200191508051906020019080838360005b838110156108ab578181015183820152602001610893565b50505050905090810190601f1680156108d85780820380516001836020036101000a031916815260200191505b50838103825284518152845160209182019186019080838360005b8381101561090b5781810151838201526020016108f3565b50505050905090810190601f1680156109385780820380516001836020036101000a031916815260200191505b509550505050505060405180910390a15050565b6000816040516020018082805190602001908083835b602083106109815780518252601f199092019160209182019101610962565b6001836020036101000a03801982511681845116808217855250505050505090500191505060405160208183030381529060405280519060200120836040516020018082805190602001908083835b602083106109ef5780518252601f1990920191602091820191016109d0565b6001836020036101000a0380198251168184511680821785525050505050509050019150506040516020818303038152906040528051906020012014905092915050565b828054600181600116156101000203166002900490600052602060002090601f016020900481019282601f10610a7457805160ff1916838001178555610aa1565b82800160010185558215610aa1579182015b82811115610aa1578251825591602001919060010190610a86565b50610aad929150610ab1565b5090565b610acb91905b80821115610aad5760008155600101610ab7565b9056fea265627a7a72315820c4b3189f89ffc66af5591862f8b048303164426dfb0c6c0228f2b1e697be084064736f6c63430005100032",
  "source": "pragma solidity ^0.5.0;\n\nimport \"solidity-string-utils/StringUtils.sol\";\n\ncontract User {\n  uint public userCount = 0;\n\n  struct User {\n    uint id;\n    string name;\n    string password;\n  }\n\n  \n\n  mapping(uint => User) public users;\n\n\n\n\n  event UserCreated(\n    uint id,\n    string name,\n    string password\n  );\n\n  constructor() public {\n    createUser(\"admin\",\"admin\");\n    createUser(\"asd\",\"asd\");\n  }\n\n  function createUser(string memory _name, string memory _password) public {\n    userCount++;\n    users[userCount] = User(userCount,_name, _password);\n    emit UserCreated(userCount, _name, _password);\n  }\n\n   function loginUser(string memory _name, string memory _password) public returns(bool) {\n    \n    bool _in = false;\n    for (uint i=0; i<userCount ; i++) {\n        if(compareStrings(users[i].name,_name) && compareStrings(users[i].password,_password)){\n            _in = true;\n            \n        }\n    }\n    return _in;\n   \n  }\n\n  function compareStrings(string memory a, string memory b) public view returns (bool) {\n    return (keccak256(abi.encodePacked((a))) == keccak256(abi.encodePacked((b))));\n}\n\n\n  \n\n}\n",
  "sourcePath": "/home/ilhan/Desktop/overbooking-breaker/contracts/User.sol",
  "compiler": {
    "name": "solc",
    "version": "0.5.16+commit.9c3226ce.Emscripten.clang"
  },
  "schemaVersion": "3.2.3",
  "updatedAt": "2021-06-16T20:33:37.518Z",
  "networkType": "ethereum",
  "devdoc": {
    "methods": {}
  },
  "userdoc": {
    "methods": {}
  }
}