{
  "contractName": "User",
  "abi": [
    {
      "inputs": [],
      "payable": false,
      "stateMutability": "nonpayable",
      "type": "constructor"
    },
    {
      "anonymous": false,
      "inputs": [
        {
          "indexed": false,
          "internalType": "uint256",
          "name": "id",
          "type": "uint256"
        },
        {
          "indexed": false,
          "internalType": "string",
          "name": "hotelName",
          "type": "string"
        },
        {
          "indexed": false,
          "internalType": "string",
          "name": "roomName",
          "type": "string"
        }
      ],
      "name": "ReservationSaved",
      "type": "event"
    },
    {
      "anonymous": false,
      "inputs": [
        {
          "indexed": false,
          "internalType": "uint256",
          "name": "id",
          "type": "uint256"
        },
        {
          "indexed": false,
          "internalType": "string",
          "name": "name",
          "type": "string"
        },
        {
          "indexed": false,
          "internalType": "string",
          "name": "password",
          "type": "string"
        }
      ],
      "name": "UserCreated",
      "type": "event"
    },
    {
      "constant": true,
      "inputs": [],
      "name": "reservationCount",
      "outputs": [
        {
          "internalType": "uint256",
          "name": "",
          "type": "uint256"
        }
      ],
      "payable": false,
      "stateMutability": "view",
      "type": "function"
    },
    {
      "constant": true,
      "inputs": [
        {
          "internalType": "uint256",
          "name": "",
          "type": "uint256"
        }
      ],
      "name": "reservations",
      "outputs": [
        {
          "internalType": "uint256",
          "name": "id",
          "type": "uint256"
        },
        {
          "internalType": "string",
          "name": "hotelName",
          "type": "string"
        },
        {
          "internalType": "string",
          "name": "roomName",
          "type": "string"
        }
      ],
      "payable": false,
      "stateMutability": "view",
      "type": "function"
    },
    {
      "constant": true,
      "inputs": [],
      "name": "userCount",
      "outputs": [
        {
          "internalType": "uint256",
          "name": "",
          "type": "uint256"
        }
      ],
      "payable": false,
      "stateMutability": "view",
      "type": "function"
    },
    {
      "constant": true,
      "inputs": [
        {
          "internalType": "uint256",
          "name": "",
          "type": "uint256"
        }
      ],
      "name": "users",
      "outputs": [
        {
          "internalType": "uint256",
          "name": "id",
          "type": "uint256"
        },
        {
          "internalType": "string",
          "name": "name",
          "type": "string"
        },
        {
          "internalType": "string",
          "name": "password",
          "type": "string"
        }
      ],
      "payable": false,
      "stateMutability": "view",
      "type": "function"
    },
    {
      "constant": false,
      "inputs": [
        {
          "internalType": "string",
          "name": "_name",
          "type": "string"
        },
        {
          "internalType": "string",
          "name": "_password",
          "type": "string"
        }
      ],
      "name": "createUser",
      "outputs": [],
      "payable": false,
      "stateMutability": "nonpayable",
      "type": "function"
    },
    {
      "constant": false,
      "inputs": [
        {
          "internalType": "string",
          "name": "hotelName",
          "type": "string"
        },
        {
          "internalType": "string",
          "name": "roomName",
          "type": "string"
        }
      ],
      "name": "saveReservation",
      "outputs": [],
      "payable": false,
      "stateMutability": "nonpayable",
      "type": "function"
    },
    {
      "constant": false,
      "inputs": [
        {
          "internalType": "string",
          "name": "_name",
          "type": "string"
        },
        {
          "internalType": "string",
          "name": "_password",
          "type": "string"
        }
      ],
      "name": "loginUser",
      "outputs": [
        {
          "internalType": "bool",
          "name": "",
          "type": "bool"
        }
      ],
      "payable": false,
      "stateMutability": "nonpayable",
      "type": "function"
    },
    {
      "constant": true,
      "inputs": [
        {
          "internalType": "string",
          "name": "a",
          "type": "string"
        },
        {
          "internalType": "string",
          "name": "b",
          "type": "string"
        }
      ],
      "name": "compareStrings",
      "outputs": [
        {
          "internalType": "bool",
          "name": "",
          "type": "bool"
        }
      ],
      "payable": false,
      "stateMutability": "view",
      "type": "function"
    }
  ],
  "bytecode": "0x60806040526000805560006001553480156200001a57600080fd5b50620000676040518060400160405280600581526020016430b236b4b760d91b8152506040518060400160405280600581526020016430b236b4b760d91b815250620000b560201b60201c565b620000af60405180604001604052806003815260200162185cd960ea1b81525060405180604001604052806003815260200162185cd960ea1b815250620000b560201b60201c565b620002e0565b60008054600190810180835560408051606081018252828152602080820188815282840188905293865260028152919094208451815591518051929362000105939085019291909101906200023b565b5060408201518051620001239160028401916020909101906200023b565b509050507fa1a1af9c5c29e69f23e5ac29120f6a7ea106635803581b461fab3a26faeae6776000548383604051808481526020018060200180602001838103835285818151815260200191508051906020019080838360005b83811015620001965781810151838201526020016200017c565b50505050905090810190601f168015620001c45780820380516001836020036101000a031916815260200191505b50838103825284518152845160209182019186019080838360005b83811015620001f9578181015183820152602001620001df565b50505050905090810190601f168015620002275780820380516001836020036101000a031916815260200191505b509550505050505060405180910390a15050565b828054600181600116156101000203166002900490600052602060002090601f016020900481019282601f106200027e57805160ff1916838001178555620002ae565b82800160010185558215620002ae579182015b82811115620002ae57825182559160200191906001019062000291565b50620002bc929150620002c0565b5090565b620002dd91905b80821115620002bc5760008155600101620002c7565b90565b610dbb80620002f06000396000f3fe608060405234801561001057600080fd5b50600436106100885760003560e01c806387b162b51161005b57806387b162b514610303578063bed34bba1461042e578063cf4ef1e214610557578063e84f756e1461068057610088565b8063067cf8321461008d57806307973ccf1461018f57806322ce12e5146101a9578063365b98b2146102e6575b600080fd5b6100aa600480360360208110156100a357600080fd5b5035610688565b604051808481526020018060200180602001838103835285818151815260200191508051906020019080838360005b838110156100f15781810151838201526020016100d9565b50505050905090810190601f16801561011e5780820380516001836020036101000a031916815260200191505b50838103825284518152845160209182019186019080838360005b83811015610151578181015183820152602001610139565b50505050905090810190601f16801561017e5780820380516001836020036101000a031916815260200191505b509550505050505060405180910390f35b6101976107c1565b60408051918252519081900360200190f35b6102d2600480360360408110156101bf57600080fd5b810190602081018135600160201b8111156101d957600080fd5b8201836020820111156101eb57600080fd5b803590602001918460018302840111600160201b8311171561020c57600080fd5b91908080601f0160208091040260200160405190810160405280939291908181526020018383808284376000920191909152509295949360208101935035915050600160201b81111561025e57600080fd5b82018360208201111561027057600080fd5b803590602001918460018302840111600160201b8311171561029157600080fd5b91908080601f0160208091040260200160405190810160405280939291908181526020018383808284376000920191909152509295506107c7945050505050565b604080519115158252519081900360200190f35b6100aa600480360360208110156102fc57600080fd5b503561093a565b61042c6004803603604081101561031957600080fd5b810190602081018135600160201b81111561033357600080fd5b82018360208201111561034557600080fd5b803590602001918460018302840111600160201b8311171561036657600080fd5b91908080601f0160208091040260200160405190810160405280939291908181526020018383808284376000920191909152509295949360208101935035915050600160201b8111156103b857600080fd5b8201836020820111156103ca57600080fd5b803590602001918460018302840111600160201b831117156103eb57600080fd5b91908080601f0160208091040260200160405190810160405280939291908181526020018383808284376000920191909152509295506109aa945050505050565b005b6102d26004803603604081101561044457600080fd5b810190602081018135600160201b81111561045e57600080fd5b82018360208201111561047057600080fd5b803590602001918460018302840111600160201b8311171561049157600080fd5b91908080601f0160208091040260200160405190810160405280939291908181526020018383808284376000920191909152509295949360208101935035915050600160201b8111156104e357600080fd5b8201836020820111156104f557600080fd5b803590602001918460018302840111600160201b8311171561051657600080fd5b91908080601f016020809104026020016040519081016040528093929190818152602001838380828437600092019190915250929550610b26945050505050565b61042c6004803603604081101561056d57600080fd5b810190602081018135600160201b81111561058757600080fd5b82018360208201111561059957600080fd5b803590602001918460018302840111600160201b831117156105ba57600080fd5b91908080601f0160208091040260200160405190810160405280939291908181526020018383808284376000920191909152509295949360208101935035915050600160201b81111561060c57600080fd5b82018360208201111561061e57600080fd5b803590602001918460018302840111600160201b8311171561063f57600080fd5b91908080601f016020809104026020016040519081016040528093929190818152602001838380828437600092019190915250929550610c0d945050505050565b610197610ce5565b6003602090815260009182526040918290208054600180830180548651600293821615610100026000190190911692909204601f8101869004860283018601909652858252919492939092908301828280156107255780601f106106fa57610100808354040283529160200191610725565b820191906000526020600020905b81548152906001019060200180831161070857829003601f168201915b50505060028085018054604080516020601f60001961010060018716150201909416959095049283018590048502810185019091528181529596959450909250908301828280156107b75780601f1061078c576101008083540402835291602001916107b7565b820191906000526020600020905b81548152906001019060200180831161079a57829003601f168201915b5050505050905083565b60005481565b600080805b600054811015610932576000818152600260208181526040928390206001908101805485519281161561010002600019011693909304601f81018390048302820183019094528381526108789390929183018282801561086d5780601f106108425761010080835404028352916020019161086d565b820191906000526020600020905b81548152906001019060200180831161085057829003601f168201915b505050505086610b26565b801561092057506000818152600260208181526040928390208201805484516001821615610100026000190190911693909304601f81018390048302840183019094528383526109209390918301828280156109155780601f106108ea57610100808354040283529160200191610915565b820191906000526020600020905b8154815290600101906020018083116108f857829003601f168201915b505050505085610b26565b1561092a57600191505b6001016107cc565b509392505050565b60026020818152600092835260409283902080546001808301805487519281161561010002600019011695909504601f81018590048502820185019096528581529094919390929091908301828280156107255780601f106106fa57610100808354040283529160200191610725565b6000805460019081018083556040805160608101825282815260208082018881528284018890529386526002815291909420845181559151805192936109f893908501929190910190610ceb565b5060408201518051610a14916002840191602090910190610ceb565b509050507fa1a1af9c5c29e69f23e5ac29120f6a7ea106635803581b461fab3a26faeae6776000548383604051808481526020018060200180602001838103835285818151815260200191508051906020019080838360005b83811015610a85578181015183820152602001610a6d565b50505050905090810190601f168015610ab25780820380516001836020036101000a031916815260200191505b50838103825284518152845160209182019186019080838360005b83811015610ae5578181015183820152602001610acd565b50505050905090810190601f168015610b125780820380516001836020036101000a031916815260200191505b509550505050505060405180910390a15050565b6000816040516020018082805190602001908083835b60208310610b5b5780518252601f199092019160209182019101610b3c565b6001836020036101000a03801982511681845116808217855250505050505090500191505060405160208183030381529060405280519060200120836040516020018082805190602001908083835b60208310610bc95780518252601f199092019160209182019101610baa565b6001836020036101000a0380198251168184511680821785525050505050509050019150506040516020818303038152906040528051906020012014905092915050565b60018054810180825560408051606081018252828152602080820187815282840187905260009485526003825292909320815181559151805191949293610c5993850192910190610ceb565b5060408201518051610c75916002840191602090910190610ceb565b509050507f67ff256443436bfa2cb52cc8dc23e2662020a858582671cdfb6ea7ac5bdea18660015483836040518084815260200180602001806020018381038352858181518152602001915080519060200190808383600083811015610a85578181015183820152602001610a6d565b60015481565b828054600181600116156101000203166002900490600052602060002090601f016020900481019282601f10610d2c57805160ff1916838001178555610d59565b82800160010185558215610d59579182015b82811115610d59578251825591602001919060010190610d3e565b50610d65929150610d69565b5090565b610d8391905b80821115610d655760008155600101610d6f565b9056fea265627a7a7231582082060730aff85995862667ed23927eb531ed4e45514e293fc144825683e35c6564736f6c63430005100032",
  "source": "pragma solidity ^0.5.0;\r\n\r\nimport \"solidity-string-utils/StringUtils.sol\";\r\n\r\ncontract User {\r\n  uint public userCount = 0;\r\n  uint public reservationCount = 0;\r\n\r\n\r\n  struct User {\r\n    uint id;\r\n    string name;\r\n    string password;\r\n  }\r\n\r\n   struct Reservation{\r\n    uint id;\r\n    string hotelName;\r\n    string roomName;\r\n  }\r\n\r\n  \r\n\r\n  mapping(uint => User) public users;\r\n  mapping(uint => Reservation) public reservations;\r\n\r\n\r\n\r\n  event UserCreated(\r\n    uint id,\r\n    string name,\r\n    string password\r\n  );\r\n\r\n\r\n  event ReservationSaved(\r\n    uint id,\r\n    string hotelName,\r\n    string roomName\r\n  );\r\n  \r\n\r\n   \r\n\r\n\r\n  constructor() public {\r\n    createUser(\"admin\",\"admin\");\r\n    createUser(\"asd\",\"asd\");\r\n  }\r\n\r\n  function createUser(string memory _name, string memory _password) public {\r\n    userCount++;\r\n    users[userCount] = User(userCount,_name, _password);\r\n    emit UserCreated(userCount, _name, _password);\r\n  }\r\n\r\n  function saveReservation(string memory hotelName, string memory roomName) public {\r\n    reservationCount++;\r\n    reservations[reservationCount] = Reservation(reservationCount,hotelName, roomName);\r\n    emit ReservationSaved(reservationCount, hotelName, roomName);\r\n  }\r\n\r\n   function loginUser(string memory _name, string memory _password) public returns(bool) {\r\n    \r\n    bool _in = false;\r\n    for (uint i=0; i<userCount ; i++) {\r\n        if(compareStrings(users[i].name,_name) && compareStrings(users[i].password,_password)){\r\n            _in = true;\r\n            \r\n        }\r\n    }\r\n    return _in;\r\n   \r\n  }\r\n\r\n  function compareStrings(string memory a, string memory b) public view returns (bool) {\r\n    return (keccak256(abi.encodePacked((a))) == keccak256(abi.encodePacked((b))));\r\n}\r\n\r\n\r\n  \r\n\r\n}\r\n",
  "sourcePath": "C:/Users/guray/Desktop/overbooking-breaker/contracts/User.sol",
  "compiler": {
    "name": "solc",
    "version": "0.5.16+commit.9c3226ce.Emscripten.clang"
  },
  "schemaVersion": "3.4.1",
  "updatedAt": "2021-06-27T09:18:36.041Z",
  "networkType": "ethereum",
  "devdoc": {
    "methods": {}
  },
  "userdoc": {
    "methods": {}
  }
}